:1003000054656D702069733A200054656D702077D4
:10031000616E743A200030302E3030302E3530315E
:100320002E3030312E3530322E3030322E353033C3
:100330002E3030332E3530342E3030342E353035AB
:100340002E3030352E3530362E3030362E35303793
:100350002E3030372E3530382E3030382E3530397B
:100360002E3030392E3531302E3031302E3531317E
:100370002E3031312E3531322E3031322E3531336F
:100380002E3031332E3531342E3031342E35313557
:100390002E3031352E3531362E3031362E3531373F
:1003A0002E3031372E3531382E3031382E35313927
:1003B0002E3031392E3532302E3032302E3532312A
:1003C0002E3032312E3532322E3032322E3532331B
:1003D0002E3032332E3532342E3032342E35323503
:1003E0002E3032352E3532362E3032362E353237EB
:1003F0002E3032372E3532382E3032382E353239D3
:100400002E3032392E3533302E3033302E353331D5
:100410002E3033312E3533322E3033322E353333C6
:100420002E3033332E3533342E3033342E353335AE
:100430002E3033352E3533362E3033362E35333796
:100440002E3033372E3533382E3033382E3533397E
:100450002E3033392E3534302E3034302E35343181
:100460002E3034312E3534322E3034322E35343372
:100470002E3034332E3534342E3034342E3534355A
:100480002E3034352E3534362E3034362E35343742
:100490002E3034372E3534382E3034382E3534392A
:0604A0002E3034392E3528
:03000000020030CB
:030003000200F9FF
:0300130002014D9A
:03001B00B2B0324E
:10003000743811BA740E11BA740111BA75A88DD240
:1000400088D28A782C75892085A48B758D8BD28E69
:1000500074C011BA90030A740093600511C9A3809B
:10006000F6748011BA900300740093600511C9A35F
:1000700080F61186741011BA741011BA741011BA86
:10008000741011BA80EC11ECE58075F033842430E3
:10009000FB11C9E5F075F005842430FC11C9742EFC
:1000A00011C9E5F075F00384B400077430FD11C97F
:1000B00080057435FD11C931A32211D8F590C2A174
:1000C000C2A0D2A20000C2A22211D8F590D2A1C231
:1000D000A0D2A20000C2A222C2A2D297C2A1D2A0E4
:1000E000C2A20000D2A22097F7C2A222D2A400D2BC
:1000F000A30000C2A330A4FD2274C011BA740BC0C7
:10010000E0741411BAD0E014600280F3900316E892
:1001100075F004A4C0E09311C9D0E004C0E09311CD
:10012000C9D0E004C0E09311C9D0E004C0E093114D
:10013000C9D0E00475F00484F8748011BA7409C061
:03014000E0741454
:1001430011BAD0E014600280F33274C011BA740B98
:10015300C0E0741411BAD0E014600280F390031667
:10016300E8141475F004A4C0E09311C9D0E004C0EE
:10017300E09311C9D0E004C0E09311C9D0E004C0FA
:10018300E09311C9D0E00475F00484F8748011BAC7
:100193007409C0E0741411BAD0E014600280F33221
:1001A300900316E875F004A4939430C0E0EB943008
:1001B30070027401F5F0D0E0846052B4014BE5F0B5
:1001C300B40046E875F004A404939430C0E0EC94C2
:1001D3003070027401F5F0D0E0846031B4012AE597
:1001E300F0B40025E875F004A4040404939430C02B
:1001F300E0ED943070027401F5F0D0E084600EB449
:100203000107E5F0B400028004D2B18002C2B1223A
:00000001FF
